{"abi":[{"type":"constructor","inputs":[{"name":"_usdc","type":"address","internalType":"address"}],"stateMutability":"nonpayable"},{"type":"receive","stateMutability":"payable"},{"type":"function","name":"BITE_FEE","inputs":[],"outputs":[{"name":"","type":"uint256","internalType":"uint256"}],"stateMutability":"view"},{"type":"function","name":"CTX_GAS_LIMIT","inputs":[],"outputs":[{"name":"","type":"uint256","internalType":"uint256"}],"stateMutability":"view"},{"type":"function","name":"ITEM_PRICE","inputs":[],"outputs":[{"name":"","type":"uint256","internalType":"uint256"}],"stateMutability":"view"},{"type":"function","name":"USDC","inputs":[],"outputs":[{"name":"","type":"address","internalType":"address"}],"stateMutability":"view"},{"type":"function","name":"decodeAddress","inputs":[{"name":"data","type":"bytes","internalType":"bytes"}],"outputs":[{"name":"","type":"address","internalType":"address"}],"stateMutability":"pure"},{"type":"function","name":"decodeExtraData","inputs":[{"name":"data","type":"bytes","internalType":"bytes"}],"outputs":[{"name":"","type":"bytes[]","internalType":"bytes[]"}],"stateMutability":"pure"},{"type":"function","name":"onDecrypt","inputs":[{"name":"index","type":"uint256","internalType":"uint256"},{"name":"decryptedArgs","type":"bytes[]","internalType":"bytes[]"},{"name":"extraData","type":"bytes","internalType":"bytes"}],"outputs":[],"stateMutability":"nonpayable"},{"type":"function","name":"onDecrypt","inputs":[{"name":"decryptedArgs","type":"bytes[]","internalType":"bytes[]"},{"name":"plaintextArgs","type":"bytes[]","internalType":"bytes[]"}],"outputs":[],"stateMutability":"nonpayable"},{"type":"function","name":"purchaseSecretly","inputs":[{"name":"encryptedItem","type":"bytes","internalType":"bytes"}],"outputs":[],"stateMutability":"payable"},{"type":"event","name":"OrderRevealed","inputs":[{"name":"buyer","type":"address","indexed":true,"internalType":"address"},{"name":"decryptedItem","type":"string","indexed":false,"internalType":"string"}],"anonymous":false}],"bytecode":{"object":"0x60a060405234801561001057600080fd5b5060405161196a38038061196a833981810160405281019061003291906100cf565b8073ffffffffffffffffffffffffffffffffffffffff1660808173ffffffffffffffffffffffffffffffffffffffff1681525050506100fc565b600080fd5b600073ffffffffffffffffffffffffffffffffffffffff82169050919050565b600061009c82610071565b9050919050565b6100ac81610091565b81146100b757600080fd5b50565b6000815190506100c9816100a3565b92915050565b6000602082840312156100e5576100e461006c565b5b60006100f3848285016100ba565b91505092915050565b60805161184c61011e600039600081816105d70152610647015261184c6000f3fe60806040526004361061008a5760003560e01c80636b0d7f55116100595780636b0d7f551461015057806389a302711461017b578063a7c608f5146101a6578063af91c8aa146101c2578063af970dd7146101ff57610091565b80632f245b8c1461009657806357983ac8146100bf5780635ef271c6146100e8578063665b0fb91461012557610091565b3661009157005b600080fd5b3480156100a257600080fd5b506100bd60048036038101906100b89190610ae8565b61022a565b005b3480156100cb57600080fd5b506100e660048036038101906100e19190610b7d565b6104b0565b005b3480156100f457600080fd5b5061010f600480360381019061010a9190610bfe565b6105aa565b60405161011c9190610d9d565b60405180910390f35b34801561013157600080fd5b5061013a6105c3565b6040516101479190610dce565b60405180910390f35b34801561015c57600080fd5b506101656105ce565b6040516101729190610dce565b60405180910390f35b34801561018757600080fd5b506101906105d5565b60405161019d9190610e2a565b60405180910390f35b6101c060048036038101906101bb9190610bfe565b6105f9565b005b3480156101ce57600080fd5b506101e960048036038101906101e49190610bfe565b6109c3565b6040516101f69190610e2a565b60405180910390f35b34801561020b57600080fd5b506102146109dc565b6040516102219190610dce565b60405180910390f35b3073ffffffffffffffffffffffffffffffffffffffff16635ef271c683836040518363ffffffff1660e01b8152600401610265929190610e92565b600060405180830381865afa9250505080156102a457506040513d6000823e3d601f19601f820116820180604052508101906102a191906110b8565b60015b6103ac57601482829050106103a7576000602083839050036102d65782828101906102cf919061113f565b90506102e9565b8282906102e391906111b0565b60601c90505b6000858560008181106102ff576102fe61120f565b5b9050602002810190610311919061124d565b8080601f016020809104026020016040519081016040528093929190818152602001838380828437600081840152601f19601f8201169050808301925050505050505090508173ffffffffffffffffffffffffffffffffffffffff167f8416bb6e91ff603adc8b1787307351cfc5a0c19ff48d51d5c90053201495dcdc8260405161039c9190611305565b60405180910390a250505b6104a9565b6000815111156104a7576000816000815181106103cc576103cb61120f565b5b60200260200101518060200190518101906103e7919061133c565b90506000868660008181106103ff576103fe61120f565b5b9050602002810190610411919061124d565b8080601f016020809104026020016040519081016040528093929190818152602001838380828437600081840152601f19601f8201169050808301925050505050505090508173ffffffffffffffffffffffffffffffffffffffff167f8416bb6e91ff603adc8b1787307351cfc5a0c19ff48d51d5c90053201495dcdc8260405161049c9190611305565b60405180910390a250505b505b5050505050565b6000828260008181106104c6576104c561120f565b5b90506020028101906104d8919061124d565b8101906104e5919061113f565b90506000858560008181106104fd576104fc61120f565b5b905060200281019061050f919061124d565b8080601f016020809104026020016040519081016040528093929190818152602001838380828437600081840152601f19601f8201169050808301925050505050505090508173ffffffffffffffffffffffffffffffffffffffff167f8416bb6e91ff603adc8b1787307351cfc5a0c19ff48d51d5c90053201495dcdc8260405161059a9190611305565b60405180910390a2505050505050565b606082828101906105bb919061148e565b905092915050565b66d529ae9e86000081565b620f424081565b7f000000000000000000000000000000000000000000000000000000000000000081565b66d529ae9e860000341015610643576040517f08c379a000000000000000000000000000000000000000000000000000000000815260040161063a90611523565b60405180910390fd5b60007f000000000000000000000000000000000000000000000000000000000000000073ffffffffffffffffffffffffffffffffffffffff166323b872dd3330620f42406040518463ffffffff1660e01b81526004016106a593929190611543565b6020604051808303816000875af11580156106c4573d6000803e3d6000fd5b505050506040513d601f19601f820116820180604052508101906106e891906115b2565b90508061072a576040517f08c379a00000000000000000000000000000000000000000000000000000000081526004016107219061162b565b60405180910390fd5b6000600167ffffffffffffffff81111561074757610746610eb6565b5b60405190808252806020026020018201604052801561077a57816020015b60608152602001906001900390816107655790505b50905083838080601f016020809104026020016040519081016040528093929190818152602001838380828437600081840152601f19601f82011690508083019250505050505050816000815181106107d6576107d561120f565b5b60200260200101819052506000600167ffffffffffffffff8111156107fe576107fd610eb6565b5b60405190808252806020026020018201604052801561083157816020015b606081526020019060019003908161081c5790505b509050336040516020016108459190610e2a565b604051602081830303815290604052816000815181106108685761086761120f565b5b60200260200101819052506000622625a0838360405160200161088c92919061164b565b6040516020818303038152906040526040516020016108ac9291906116bb565b6040516020818303038152906040529050600080601b73ffffffffffffffffffffffffffffffffffffffff1666d529ae9e860000846040516108ee9190611727565b60006040518083038185875af1925050503d806000811461092b576040519150601f19603f3d011682016040523d82523d6000602084013e610930565b606091505b509150915081610975576040517f08c379a000000000000000000000000000000000000000000000000000000000815260040161096c9061178a565b60405180910390fd5b60148151146109b9576040517f08c379a00000000000000000000000000000000000000000000000000000000081526004016109b0906117f6565b60405180910390fd5b5050505050505050565b600082828101906109d4919061113f565b905092915050565b622625a081565b6000604051905090565b600080fd5b600080fd5b6000819050919050565b610a0a816109f7565b8114610a1557600080fd5b50565b600081359050610a2781610a01565b92915050565b600080fd5b600080fd5b600080fd5b60008083601f840112610a5257610a51610a2d565b5b8235905067ffffffffffffffff811115610a6f57610a6e610a32565b5b602083019150836020820283011115610a8b57610a8a610a37565b5b9250929050565b60008083601f840112610aa857610aa7610a2d565b5b8235905067ffffffffffffffff811115610ac557610ac4610a32565b5b602083019150836001820283011115610ae157610ae0610a37565b5b9250929050565b600080600080600060608688031215610b0457610b036109ed565b5b6000610b1288828901610a18565b955050602086013567ffffffffffffffff811115610b3357610b326109f2565b5b610b3f88828901610a3c565b9450945050604086013567ffffffffffffffff811115610b6257610b616109f2565b5b610b6e88828901610a92565b92509250509295509295909350565b60008060008060408587031215610b9757610b966109ed565b5b600085013567ffffffffffffffff811115610bb557610bb46109f2565b5b610bc187828801610a3c565b9450945050602085013567ffffffffffffffff811115610be457610be36109f2565b5b610bf087828801610a3c565b925092505092959194509250565b60008060208385031215610c1557610c146109ed565b5b600083013567ffffffffffffffff811115610c3357610c326109f2565b5b610c3f85828601610a92565b92509250509250929050565b600081519050919050565b600082825260208201905092915050565b6000819050602082019050919050565b600081519050919050565b600082825260208201905092915050565b60005b83811015610cb1578082015181840152602081019050610c96565b60008484015250505050565b6000601f19601f8301169050919050565b6000610cd982610c77565b610ce38185610c82565b9350610cf3818560208601610c93565b610cfc81610cbd565b840191505092915050565b6000610d138383610cce565b905092915050565b6000602082019050919050565b6000610d3382610c4b565b610d3d8185610c56565b935083602082028501610d4f85610c67565b8060005b85811015610d8b5784840389528151610d6c8582610d07565b9450610d7783610d1b565b925060208a01995050600181019050610d53565b50829750879550505050505092915050565b60006020820190508181036000830152610db78184610d28565b905092915050565b610dc8816109f7565b82525050565b6000602082019050610de36000830184610dbf565b92915050565b600073ffffffffffffffffffffffffffffffffffffffff82169050919050565b6000610e1482610de9565b9050919050565b610e2481610e09565b82525050565b6000602082019050610e3f6000830184610e1b565b92915050565b600082825260208201905092915050565b82818337600083830152505050565b6000610e718385610e45565b9350610e7e838584610e56565b610e8783610cbd565b840190509392505050565b60006020820190508181036000830152610ead818486610e65565b90509392505050565b7f4e487b7100000000000000000000000000000000000000000000000000000000600052604160045260246000fd5b610eee82610cbd565b810181811067ffffffffffffffff82111715610f0d57610f0c610eb6565b5b80604052505050565b6000610f206109e3565b9050610f2c8282610ee5565b919050565b600067ffffffffffffffff821115610f4c57610f4b610eb6565b5b602082029050602081019050919050565b600080fd5b600067ffffffffffffffff821115610f7d57610f7c610eb6565b5b610f8682610cbd565b9050602081019050919050565b6000610fa6610fa184610f62565b610f16565b905082815260208101848484011115610fc257610fc1610f5d565b5b610fcd848285610c93565b509392505050565b600082601f830112610fea57610fe9610a2d565b5b8151610ffa848260208601610f93565b91505092915050565b600061101661101184610f31565b610f16565b9050808382526020820190506020840283018581111561103957611038610a37565b5b835b8181101561108057805167ffffffffffffffff81111561105e5761105d610a2d565b5b80860161106b8982610fd5565b8552602085019450505060208101905061103b565b5050509392505050565b600082601f83011261109f5761109e610a2d565b5b81516110af848260208601611003565b91505092915050565b6000602082840312156110ce576110cd6109ed565b5b600082015167ffffffffffffffff8111156110ec576110eb6109f2565b5b6110f88482850161108a565b91505092915050565b600061110c82610de9565b9050919050565b61111c81611101565b811461112757600080fd5b50565b60008135905061113981611113565b92915050565b600060208284031215611155576111546109ed565b5b60006111638482850161112a565b91505092915050565b600082905092915050565b60007fffffffffffffffffffffffffffffffffffffffff00000000000000000000000082169050919050565b600082821b905092915050565b60006111bc838361116c565b826111c78135611177565b92506014821015611207576112027fffffffffffffffffffffffffffffffffffffffff000000000000000000000000836014036008026111a3565b831692505b505092915050565b7f4e487b7100000000000000000000000000000000000000000000000000000000600052603260045260246000fd5b600080fd5b600080fd5b600080fd5b6000808335600160200384360303811261126a5761126961123e565b5b80840192508235915067ffffffffffffffff82111561128c5761128b611243565b5b6020830192506001820236038313156112a8576112a7611248565b5b509250929050565b600081519050919050565b600082825260208201905092915050565b60006112d7826112b0565b6112e181856112bb565b93506112f1818560208601610c93565b6112fa81610cbd565b840191505092915050565b6000602082019050818103600083015261131f81846112cc565b905092915050565b60008151905061133681611113565b92915050565b600060208284031215611352576113516109ed565b5b600061136084828501611327565b91505092915050565b600061137c61137784610f62565b610f16565b90508281526020810184848401111561139857611397610f5d565b5b6113a3848285610e56565b509392505050565b600082601f8301126113c0576113bf610a2d565b5b81356113d0848260208601611369565b91505092915050565b60006113ec6113e784610f31565b610f16565b9050808382526020820190506020840283018581111561140f5761140e610a37565b5b835b8181101561145657803567ffffffffffffffff81111561143457611433610a2d565b5b80860161144189826113ab565b85526020850194505050602081019050611411565b5050509392505050565b600082601f83011261147557611474610a2d565b5b81356114858482602086016113d9565b91505092915050565b6000602082840312156114a4576114a36109ed565b5b600082013567ffffffffffffffff8111156114c2576114c16109f2565b5b6114ce84828501611460565b91505092915050565b7f496e73756666696369656e7420734655454c20666f7220424954452066656500600082015250565b600061150d601f836112bb565b9150611518826114d7565b602082019050919050565b6000602082019050818103600083015261153c81611500565b9050919050565b60006060820190506115586000830186610e1b565b6115656020830185610e1b565b6115726040830184610dbf565b949350505050565b60008115159050919050565b61158f8161157a565b811461159a57600080fd5b50565b6000815190506115ac81611586565b92915050565b6000602082840312156115c8576115c76109ed565b5b60006115d68482850161159d565b91505092915050565b7f55534443207472616e73666572206661696c6564000000000000000000000000600082015250565b60006116156014836112bb565b9150611620826115df565b602082019050919050565b6000602082019050818103600083015261164481611608565b9050919050565b600060408201905081810360008301526116658185610d28565b905081810360208301526116798184610d28565b90509392505050565b600061168d82610c77565b6116978185610e45565b93506116a7818560208601610c93565b6116b081610cbd565b840191505092915050565b60006040820190506116d06000830185610dbf565b81810360208301526116e28184611682565b90509392505050565b600081905092915050565b600061170182610c77565b61170b81856116eb565b935061171b818560208601610c93565b80840191505092915050565b600061173382846116f6565b915081905092915050565b7f42495445207375626d6974435458206661696c65640000000000000000000000600082015250565b60006117746015836112bb565b915061177f8261173e565b602082019050919050565b600060208201905081810360008301526117a381611767565b9050919050565b7f496e76616c696420424954452072657475726e206c656e677468000000000000600082015250565b60006117e0601a836112bb565b91506117eb826117aa565b602082019050919050565b6000602082019050818103600083015261180f816117d3565b905091905056fea26469706673582212207feaae85f2327053718bca992bb99aa55901d35396831f692e5ccd74192c42a564736f6c634300081b0033","linkReferences":{}},"methodIdentifiers":{"BITE_FEE()":"665b0fb9","CTX_GAS_LIMIT()":"af970dd7","ITEM_PRICE()":"6b0d7f55","USDC()":"89a30271","decodeAddress(bytes)":"af91c8aa","decodeExtraData(bytes)":"5ef271c6","onDecrypt(bytes[],bytes[])":"57983ac8","onDecrypt(uint256,bytes[],bytes)":"2f245b8c","purchaseSecretly(bytes)":"a7c608f5"},"id":22}