{"abi":[{"type":"function","name":"SUBMIT_CTX_ADDRESS","inputs":[],"outputs":[{"name":"","type":"address","internalType":"address"}],"stateMutability":"view"},{"type":"event","name":"CTXSubmitted","inputs":[{"name":"callbackSender","type":"address","indexed":true,"internalType":"address"}],"anonymous":false},{"type":"error","name":"IncorrectReturnDataLength","inputs":[{"name":"precompiledContract","type":"address","internalType":"address"},{"name":"expected","type":"uint256","internalType":"uint256"},{"name":"actual","type":"uint256","internalType":"uint256"}]},{"type":"error","name":"PrecompiledCallFailed","inputs":[{"name":"precompiledContract","type":"address","internalType":"address"}]}],"bytecode":{"object":"0x60e3610051600b82828239805160001a6073146044577f4e487b7100000000000000000000000000000000000000000000000000000000600052600060045260246000fd5b30600052607381538281f3fe730000000000000000000000000000000000000000301460806040526004361060335760003560e01c80634fbc82ba146038575b600080fd5b603e6052565b604051604991906094565b60405180910390f35b601b81565b600073ffffffffffffffffffffffffffffffffffffffff82169050919050565b60006080826057565b9050919050565b608e816077565b82525050565b600060208201905060a760008301846087565b9291505056fea26469706673582212203f5219d93cb1546dbbed569864cd7640373eaa1360dfde8da1ff16a312d5429c64736f6c634300081b0033","linkReferences":{}},"methodIdentifiers":{"SUBMIT_CTX_ADDRESS()":"4fbc82ba"},"id":0}